:1000000012C019C018C017C016C015C014C013C044
:1000100012C011C010C00FC00EC00DC00CC00BC06C
:100020000AC009C008C011241FBECFE5D2E0DEBF60
:10003000CDBF02D034C0E4CFBC9ABE9AD29818BAD1
:1000400018BA84E08BBBCA9B15C0C69A2FE38DE01B
:1000500093E0215080409040E1F700C00000C49838
:100060002FE38DE093E0215080409040E1F700C005
:100070000000E9CFC6982FE38DE093E02150804047
:100080009040E1F700C00000C49A2FE38DE093E0B8
:10009000215080409040E1F700C00000D4CFF89498
:0200A000FFCF90
:00000001FF
